S01900004F706472616368742035207765656B20322E7372656363
S113000045C0000058C0000056C0000054C00000A5
S113001052C0000050C000004EC000004CC00000A0
S11300204AC0000048C0000046C0000044C00000B0
S113003042C0000040C000003EC000003CC00000C0
S11300403AC0000038C0000036C0000034C00000D0
S113005032C0000030C000002EC000002CC00000E0
S11300602AC0000028C0000026C0000024C00000F0
S113007022C0000020C000001EC000001CC0000000
S11300801AC0000018C0000016C0000011241FBED2
S1130090CFEFD0E1DEBFCDBF11E0A0E0B1E0EAE2F6
S11300A0F2E000E00BBF02C007900D92A431B1074B
S11300B0D9F7A8D0B8C0A4CFAB9A8FEC97E001973A
S11300C0F1F700C00000AB988FEC97E00197F1F7CF
S11300D000C000000895CF938FEF84BB15BAC0E22F
S11300E0C5BBEADFC5BBE8DF80E885BBE5DF15BA41
S11300F0E3DF80EF85BBE0DF15BADEDF80E685BB9A
S1130100DBDFCF910895CF93C82F85BBAA9AD4DFA4
S1130110C295C07FC5BBAA9ACFDFCF910895CF9374
S1130120C82F85BBAA98C8DFC295C07FC5BBAA9853
S1130130C3DFCF91089581E0F2DF2FE78AE196E0F3
S1130140215080409040E1F700C000000895AF9234
S1130150BF92DF92EF92FF920F931F93CF93DF939F
S113016000D000D01F92CDB7DEB78C01D42E613001
S1130170710539F480E8D3DFF8018081811120C052
S113018032C06230710519F480ECC9DFF5CF85E027
S1130190E0E0F1E0DE01119601900D928A95E1F71D
S11301A0CADFCE0101967C015E0197E0A90EB11C65
S11301B0F70181917F01A7DFEA14FB04C9F7DCCFC3
S11301C00F5F1F4FA0DFDD2049F0FFEF20E782E043
S11301D0F15020408040E1F700C00000F801819117
S11301E08F018111EFCF0F900F900F900F900F9010
S11301F0DF91CF911F910F91FF90EF90DF90BF900F
S1130200AF9008958FEF81BB66DF95DF40E061E03A
S113021070E086E091E09BDF41E062E070E086E020
S10D022091E095DFF2CFF894FFCFD0
S113022A4572726F72005965646920796F7520612D
S107023A72650000E5
S9030000FC
