S0110000426F65626F74322E302E7372656328
S113000007C1000024C1000022C1000020C100007B
S11300101EC100001CC100001AC1000018C100006C
S113002016C1000014C1000012C1000010C100007C
S11300300EC10000AAC200000AC1000008C10000ED
S113004006C1000004C1000002C1000000C100009C
S1130050FEC00000FCC00000FAC00000F5C20000B1
S1130060F6C00000F4C00000F2C00000F0C00000C0
S1130070EEC00000ECC00000EAC00000E8C00000D0
S1130080E6C00000E4C00000E2C00000E0C00000E0
S1130090DEC00000DCC00000DAC00000D8C00000F0
S11300A0D6C00000D4C00000D2C00000D0C0000000
S11300B0CEC00000CCC00000CAC00000C8C0000010
S11300C0C6C00000C4C00000C2C00000C0C0000020
S11300D0BEC00000BCC00000BAC00000B8C0000030
S11300E0B6C0000048044B043A043E0444048204AD
S11300F04F04530459045D04610467046B046F04E2
S11301008204750479047D040200000A0B02090CC0
S11301100D0E0807030401000000000000000000A9
S113012000000000000000000000000000000000CB
S11301300000000000121110000000000000000088
S113014000000000000000000000000000000001AA
S113015002102020080810204010204080020102D4
S1130160010804020101020408102040808040209C
S113017010080402018004020180402010080402D7
S11301800108040201010204081020408001020455
S11301900810204080050505050705080808080221
S11301A00202020A0A08080404040401010101010C
S11301B00101010303030303030303040707070CFB
S11301C00C0C0C0C0C0C0C020202020606060606B1
S11301D00606060B0B0B0B0B0B0B0B00002200256A
S11301E00028002B002E003100340002010000051D
S11301F00108010B0100002100240027002A002D22
S1130200003000330001010000040107010A01006D
S113021011241FBECFEFD1E2DEBFCDBF00E00CBF83
S113022012E0A0E0B2E0E0EFF9E000E00BBF02C0B2
S113023007900D92A230B107D9F722E0A2E0B2E014
S113024001C01D92A331B207E1F747D1CFC3D8CE85
S113025061E086E058D361E087E055D361E088E04F
S113026052D361E081E04FD361E084E04CD361E09C
S113027085E049D361E082E046D361E083E043D383
S113028061E080E040D361E080E03DD361E086E05E
S11302903AD360E080E037D361E088E134D361E0B1
S11302A082E231D361E084E22ED361E086E22BD393
S11302B061E088E228D361E08AE225D361E08CE240
S11302C022D361E08EE21FD361E080E31CD361E0BE
S11302D082E319D361E084E316C38931910519F4EB
S11302E061E082E2D9C08233910531F461E082E2B7
S11302F046D361E084E2D0C08B34910549F461E0D7
S113030082E23DD361E084E23AD361E086E2C4C094
S11303108436910561F461E082E231D361E084E2E4
S11303202ED361E086E22BD361E088E2B5C08D373D
S1130330910579F461E082E222D361E084E21FD383
S113034061E086E21CD361E088E219D361E08AE2CD
S1130350A3C08639910591F461E082E210D361E093
S113036084E20DD361E086E20AD361E088E207D338
S113037061E08AE204D361E08CE28EC08F3A910599
S1130380A9F461E082E2FBD261E084E2F8D261E0A8
S113039086E2F5D261E088E2F2D261E08AE2EFD24D
S11303A061E08CE2ECD261E08EE276C0883C91059B
S11303B0C1F461E082E2E3D261E084E2E0D261E090
S11303C086E2DDD261E088E2DAD261E08AE2D7D265
S11303D061E08CE2D4D261E08EE2D1D261E080E3CC
S11303E05BC0813E9105D9F461E082E2C8D261E04C
S11303F084E2C5D261E086E2C2D261E088E2BFD283
S113040061E08AE2BCD261E08CE2B9D261E08EE2C2
S1130410B6D261E080E3B3D261E082E33DC08A3FBB
S11304209105E9F461E082E2AAD261E084E2A7D214
S113043061E086E2A4D261E088E2A1D261E08AE2CE
S11304409ED261E08CE29BD261E08EE298D261E0C0
S113045080E395D261E082E392D261E01CC060E067
S113046082E28DD260E084E28AD260E086E287D2C2
S113047060E088E284D260E08AE281D260E08CE2CB
S11304807ED260E08EE27BD260E080E378D260E0EE
S113049082E375D260E084E372C2CF93DF938091EC
S11304A00202811116C0C0E0D0E0CE0116DF68EC74
S11304B070E080E090E037D16996CA3FD105A9F792
S11304C08AEF90E00ADF68EC70E080E090E02BD1E6
S11304D0F7CFDF91CF91089508955ED1FDDFB8DEA7
S11304E0C0E0D0E0DADF2097E9F30E940000FACF01
S11304F08230A9F028F4882349F0813051F008951E
S1130500843021F1E8F0853039F1089510926E00BD
S1130510089580916F008D7F80936F00089580917E
S113052070008D7F8093700081E08093B000809193
S1130530B100887F84608093B1001092B300089565
S1130540809171008D7F8093710008958091720075
S11305508D7F809372000895809173008D7F8093C6
S113056073000895CF93C82F80910002C81307C069
S1130570E8E0F1E084919FEF9093000201C08FEFD7
S1130580B7DF60E08C2FCF91FAC11F920F920FB6A4
S11305900F9211240BB60F922F933F934F935F93B7
S11305A06F937F938F939F93AF93BF93EF93FF9337
S11305B08091060290910702A0910802B09109026D
S11305C0892B8A2B8B2B51F190910302E091040229
S11305D0F0910502808189278083809106029091A1
S11305E00702A0910802B0910902181619061A060A
S11305F01B06BCF48091060290910702A0910802A8
S1130600B09109020197A109B10980930602909360
S11306100702A0930802B093090203C0809100026C
S1130620A1DFFF91EF91BF91AF919F918F917F9146
S11306306F915F914F913F912F910F900BBE0F904F
S11306400FBE0F901F9018951F920F920FB60F9226
S113065011242F933F938F939F93AF93BF938091D4
S11306600B0290910C02A0910D02B0910E023091F8
S11306700A0223E0230F2D3720F40196A11DB11D9A
S113068005C026E8230F0296A11DB11D20930A027E
S113069080930B0290930C02A0930D02B0930E0270
S11306A080910F0290911002A0911102B091120258
S11306B00196A11DB11D80930F0290931002A09387
S11306C01102B0931202BF91AF919F918F913F910C
S11306D02F910F900FBE0F901F9018953FB7F8946D
S11306E080910F0290911002A0911102B091120218
S11306F026B5A89B05C02F3F19F00196A11DB11D79
S11307003FBFBA2FA92F982F8827820F911DA11DB3
S1130710B11DBC01CD0142E0660F771F881F991FF0
S11307204A95D1F708958F929F92AF92BF92CF923C
S1130730DF92EF92FF926B017C01D0DF4B015C01F1
S1130740C114D104E104F104F1F047D1C7DFDC01A5
S1130750CB0188199909AA09BB09883E9340A105D0
S1130760B10570F321E0C21AD108E108F10888EE5E
S1130770880E83E0981EA11CB11CC114D104E104AD
S1130780F10421F7DDCFFF90EF90DF90CF90BF9081
S1130790AF909F908F900895789484B5826084BDC3
S11307A084B5816084BD85B5826085BD85B5816071
S11307B085BDEEE6F0E0808181608083E1E8F0E0D1
S11307C01082808182608083808181608083E0E800
S11307D0F0E0808181608083E1EBF0E080818460DF
S11307E08083E0EBF0E0808181608083E1E9F0E0E8
S11307F0808182608083808181608083E0E9F0E091
S1130800808181608083E1EAF0E08081826080837E
S1130810808181608083E0EAF0E080818160808370
S1130820E1E2F1E080818260808380818160808365
S1130830E0E2F1E0808181608083EAE7F0E080819A
S113084084608083808182608083808181608083F2
S11308508081806880831092C100089590E0FC013B
S11308603197E231F10508F04DC08827EE58FF4F6B
S11308708F4FB4C0809180008F7703C08091800037
S11308808F7D80938000089580918000877FF9CFC9
S113089084B58F7702C084B58F7D84BD089580911F
S11308A0B0008F7703C08091B0008F7D8093B0003B
S11308B00895809190008F7707C0809190008F7D7C
S11308C003C080919000877F809390000895809169
S11308D0A0008F7707C08091A0008F7D03C0809116
S11308E0A000877F8093A0000895809120018F77D6
S11308F007C0809120018F7D03C080912001877FF4
S1130900809320010895CF93DF9390E0FC01E15B95
S1130910FE4F2491FC01EB56FE4F8491882361F134
S113092090E0880F991FFC01EB50FE4FC591D491C4
S1130930FC01E552FE4FA591B491611109C09FB726
S1130940F8948881209582238883EC912E230BC010
S1130950623061F49FB7F8948881322F30958323F5
S11309608883EC912E2B2C939FBF06C08FB7F894ED
S1130970E8812E2B28838FBFDF91CF9108951F9399
S1130980CF93DF93282F30E0F901E75FFE4F849186
S1130990F901E15BFE4FD491F901EB56FE4FC4918E
S11309A0CC23B9F0162F811159DFEC2FF0E0EE0FB4
S11309B0FF1FE552FE4FA591B4919FB7F894111112
S11309C004C08C91D095D82302C0EC91DE2BDC932B
S11309D09FBFDF91CF911F9108950895EE0FFF1FE0
S11309E0881F8BBF0790F691E02D1994F894FFCFE0
S10509F0FF0002
S9030000FC
