:1000000045C0000058C0000056C0000054C00000A9
:1000100052C0000050C000004EC000004CC00000A4
:100020004AC0000048C0000046C0000044C00000B4
:1000300042C0000040C000003EC000003CC00000C4
:100040003AC0000038C0000036C0000034C00000D4
:1000500032C0000030C000002EC000002CC00000E4
:100060002AC0000028C0000026C0000024C00000F4
:1000700022C0000020C000001EC000001CC0000004
:100080001AC0000018C0000016C0000011241FBED6
:10009000CFEFD0E1DEBFCDBF11E0A0E0B1E0EEE3F5
:1000A000F1E000E00BBF02C007900D92A031B10754
:1000B000D9F72ED042C0A4CF181619066CF420E050
:1000C00030E0EFECF7E03197F1F700C000002F5F70
:1000D0003F4F82179307A9F708958F30910534F4A5
:1000E000FC01E050FF4F808182BB089512BA089551
:1000F000CF93DF93C0E0D0E0CE01EFDF84EF91E05B
:10010000DBDF2196C131D105B9F7DF91CF91089599
:100110008FEF81BB80E090E0E0DFC0E0D0E0E8DF7F
:10012000989B03C02196CE01D8DF999B03C02197ED
:0E013000CE01D3DF83B383B3F2CFF894FFCFB9
:10013E003F065B4F666D7D077F6F777C395E79007A
:00000001FF
