:1000000045C000004BC0000049C0000047C00000D0
:1000100045C0000055C000007FC000003FC0000088
:100020003DC000003BC0000039C0000037C00000E8
:1000300035C0000033C0000031C000002FC00000F8
:100040002DC000002BC0000029C0000027C0000008
:1000500025C0000023C0000021C000001FC0000018
:100060001DC000001BC0000019C0000017C0000028
:1000700015C0000013C0000011C000000FC0000038
:100080000DC000000BC0000009C0000011241FBEFD
:10009000CFEFD0E1DEBFCDBF69D073C0B1CF1816AE
:1000A00019066CF420E030E0EFECF7E03197F1F75F
:1000B00000C000002F5F3F4F82179307A9F70895F4
:1000C0001F920F920FB60F9211240BB60F922F931F
:1000D0003F934F935F936F937F938F939F93AF93D0
:1000E000BF93EF93FF9382B38F6D82BB84E690E062
:1000F000D6DFFF91EF91BF91AF919F918F917F914B
:100100006F915F914F913F912F910F900BBE0F9088
:100110000FBE0F901F9018951F920F920FB60F925F
:1001200011240BB60F922F933F934F935F936F93CE
:100130007F938F939F93AF93BF93EF93FF93959884
:1001400084E690E0ACDFFF91EF91BF91AF919F917A
:100150008F917F916F915F914F913F912F910F9070
:100160000BBE0F900FBE0F901F90189588E182B9BB
:1001700012BA8AB78B608ABF89B7886189BF7894C1
:06018000FFCFF894FFCF51
:00000001FF
