S00A000042322E73726563A6
S113000045C0000053C0000051C000004FC00000B4
S11300104DC000004BC0000049C0000047C00000B4
S113002045C000004DC0000041C000003FC00000BA
S11300303DC000003BC0000039C0000037C00000D4
S113004035C0000033C0000031C000002FC00000E4
S11300502DC000002BC0000029C0000027C00000F4
S113006025C0000023C0000021C000001FC0000004
S11300701DC000001BC0000019C0000017C0000014
S113008015C0000013C0000011C0000011241FBEE1
S1130090CFEFD0E1DEBFCDBF21E0A0E0B1E001C0F1
S11300A01D92A430B207E1F74AD053C0A9CF8DE71F
S11300B083BD87B7806887BF8BE085BD789408953A
S11300C01F920F920FB60F9211242F933F938F9389
S11300D09F938091020190910301019690930301F3
S11300E0809302012091000130910101232B79F0CA
S11300F00F97E1F4109201011092000195B381E091
S1130100892785BB10920301109202010FC0499701
S113011069F481E090E0909301018093000195B32C
S1130120892785BB10920301109202019F918F9140
S11301303F912F910F900FBE0F901F9018958FEF46
S113014084BBB5DF8FE19EE40197F1F700C00000A6
S1090150F9CFF894FFCF83
S9030000FC
